S025000054656D70657261747572652073656E736F7220616E642062757A7A65722E73726563A2
S11300000C942A000C9434000C9434000C943400A6
S11300100C9434000C9434000C9434000C9434008C
S11300200C9434000C9434000C9434000C9434007C
S11300300C9434000C9434000C9434000C9434006C
S11300400C9434000C9434000C9434000C9434005C
S11300500C94340011241FBECFE5D8E0DEBFCDBF21
S11300600E9436000C945D000C94000084E081BB77
S11300708AB38F778ABB87EC87B987E886B986B15C
S1130080806486B93699FECF24B185B190E0982F6B
S11300908827822B9C01332314F42D5F3F4F359521
S11300A02795359527952E3220F082B3846082BB44
S11100B0E6CF82B38B7F82BBE2CFF894FFCF02
S9030000FC
